{
  "contractName": "theMany",
  "abi": [
    {
      "constant": true,
      "inputs": [],
      "name": "voteClosed",
      "outputs": [
        {
          "name": "",
          "type": "bool"
        }
      ],
      "payable": false,
      "stateMutability": "view",
      "type": "function"
    },
    {
      "constant": true,
      "inputs": [
        {
          "name": "",
          "type": "uint256"
        }
      ],
      "name": "keys",
      "outputs": [
        {
          "name": "",
          "type": "address"
        }
      ],
      "payable": false,
      "stateMutability": "view",
      "type": "function"
    },
    {
      "constant": true,
      "inputs": [],
      "name": "deadline",
      "outputs": [
        {
          "name": "",
          "type": "uint256"
        }
      ],
      "payable": false,
      "stateMutability": "view",
      "type": "function"
    },
    {
      "constant": true,
      "inputs": [
        {
          "name": "",
          "type": "address"
        }
      ],
      "name": "reward",
      "outputs": [
        {
          "name": "",
          "type": "uint256"
        }
      ],
      "payable": false,
      "stateMutability": "view",
      "type": "function"
    },
    {
      "constant": true,
      "inputs": [
        {
          "name": "",
          "type": "bytes32"
        }
      ],
      "name": "votesReceived",
      "outputs": [
        {
          "name": "",
          "type": "uint8"
        }
      ],
      "payable": false,
      "stateMutability": "view",
      "type": "function"
    },
    {
      "constant": true,
      "inputs": [],
      "name": "betMoney",
      "outputs": [
        {
          "name": "",
          "type": "uint256"
        }
      ],
      "payable": false,
      "stateMutability": "view",
      "type": "function"
    },
    {
      "constant": true,
      "inputs": [],
      "name": "candidateCount",
      "outputs": [
        {
          "name": "",
          "type": "uint256"
        }
      ],
      "payable": false,
      "stateMutability": "view",
      "type": "function"
    },
    {
      "constant": true,
      "inputs": [
        {
          "name": "",
          "type": "address"
        }
      ],
      "name": "voted",
      "outputs": [
        {
          "name": "",
          "type": "bool"
        }
      ],
      "payable": false,
      "stateMutability": "view",
      "type": "function"
    },
    {
      "constant": true,
      "inputs": [],
      "name": "holder",
      "outputs": [
        {
          "name": "",
          "type": "address"
        }
      ],
      "payable": false,
      "stateMutability": "view",
      "type": "function"
    },
    {
      "constant": true,
      "inputs": [
        {
          "name": "",
          "type": "bytes32"
        },
        {
          "name": "",
          "type": "uint256"
        }
      ],
      "name": "votedPersons",
      "outputs": [
        {
          "name": "",
          "type": "address"
        }
      ],
      "payable": false,
      "stateMutability": "view",
      "type": "function"
    },
    {
      "constant": true,
      "inputs": [
        {
          "name": "",
          "type": "uint256"
        }
      ],
      "name": "players",
      "outputs": [
        {
          "name": "",
          "type": "bytes32"
        }
      ],
      "payable": false,
      "stateMutability": "view",
      "type": "function"
    },
    {
      "inputs": [
        {
          "name": "_candidates",
          "type": "bytes32[]"
        },
        {
          "name": "durationInMinutes",
          "type": "uint256"
        }
      ],
      "payable": false,
      "stateMutability": "nonpayable",
      "type": "constructor"
    },
    {
      "payable": true,
      "stateMutability": "payable",
      "type": "fallback"
    },
    {
      "anonymous": false,
      "inputs": [
        {
          "indexed": true,
          "name": "candidate",
          "type": "bytes32"
        }
      ],
      "name": "votedEvent",
      "type": "event"
    },
    {
      "constant": false,
      "inputs": [],
      "name": "claim",
      "outputs": [],
      "payable": false,
      "stateMutability": "nonpayable",
      "type": "function"
    },
    {
      "constant": false,
      "inputs": [
        {
          "name": "durationInMinutes",
          "type": "uint256"
        }
      ],
      "name": "startVoting",
      "outputs": [
        {
          "name": "",
          "type": "bool"
        }
      ],
      "payable": true,
      "stateMutability": "payable",
      "type": "function"
    },
    {
      "constant": true,
      "inputs": [
        {
          "name": "candidate",
          "type": "bytes32"
        }
      ],
      "name": "votesNum",
      "outputs": [
        {
          "name": "",
          "type": "uint8"
        }
      ],
      "payable": false,
      "stateMutability": "view",
      "type": "function"
    },
    {
      "constant": false,
      "inputs": [
        {
          "name": "candidate",
          "type": "bytes32"
        }
      ],
      "name": "votePlayer",
      "outputs": [
        {
          "name": "",
          "type": "bool"
        }
      ],
      "payable": true,
      "stateMutability": "payable",
      "type": "function"
    },
    {
      "constant": true,
      "inputs": [
        {
          "name": "candidate",
          "type": "bytes32"
        }
      ],
      "name": "validPlayer",
      "outputs": [
        {
          "name": "",
          "type": "bool"
        }
      ],
      "payable": false,
      "stateMutability": "view",
      "type": "function"
    },
    {
      "constant": true,
      "inputs": [],
      "name": "getWinner",
      "outputs": [
        {
          "name": "winner",
          "type": "bytes32"
        }
      ],
      "payable": false,
      "stateMutability": "view",
      "type": "function"
    },
    {
      "constant": false,
      "inputs": [],
      "name": "getRewardAmount",
      "outputs": [
        {
          "name": "amount",
          "type": "uint256"
        }
      ],
      "payable": true,
      "stateMutability": "payable",
      "type": "function"
    },
    {
      "constant": true,
      "inputs": [],
      "name": "getBankBalance",
      "outputs": [
        {
          "name": "",
          "type": "uint256"
        }
      ],
      "payable": false,
      "stateMutability": "view",
      "type": "function"
    },
    {
      "constant": false,
      "inputs": [],
      "name": "getRewards",
      "outputs": [],
      "payable": true,
      "stateMutability": "payable",
      "type": "function"
    },
    {
      "constant": true,
      "inputs": [],
      "name": "isOver",
      "outputs": [
        {
          "name": "",
          "type": "bool"
        }
      ],
      "payable": false,
      "stateMutability": "view",
      "type": "function"
    },
    {
      "constant": true,
      "inputs": [],
      "name": "Now",
      "outputs": [
        {
          "name": "",
          "type": "uint256"
        }
      ],
      "payable": false,
      "stateMutability": "view",
      "type": "function"
    },
    {
      "constant": true,
      "inputs": [
        {
          "name": "b",
          "type": "bytes32"
        }
      ],
      "name": "byte32ToString",
      "outputs": [
        {
          "name": "",
          "type": "string"
        }
      ],
      "payable": false,
      "stateMutability": "view",
      "type": "function"
    }
  ],
  "bytecode": "0x608060405267016345785d8a00006006556000600860006101000a81548160ff0219169083151502179055503480156200003857600080fd5b5060405162001860380380620018608339810180604052810190808051820192919060200180519060200190929190505050816005908051906020019062000082929190620000e0565b50603c81024201600781905550815160098190555033600860016101000a81548173ffffffffffffffffffffffffffffffffffffffff021916908373ffffffffffffffffffffffffffffffffffffffff160217905550505062000160565b82805482825590600052602060002090810192821562000125579160200282015b828111156200012457825182906000191690559160200191906001019062000101565b5b50905062000134919062000138565b5090565b6200015d91905b80821115620001595760008160009055506001016200013f565b5090565b90565b6116f080620001706000396000f300608060405260043610610133576000357c0100000000000000000000000000000000000000000000000000000000900463ffffffff1680630572b0cc1461029057806307d7bb551461029a57806309a69f57146102c95780630cb6aaf1146102e757806329dcb0cf146103545780633c354e961461037f5780633d2f5bda146103ca57806344d4fd19146104025780634e71d92d1461042d57806352526794146104445780636353586b146104805780637021939f146104d75780637b83b50b146105225780638e7ea5b21461054d578063927a033514610580578063a9a981a3146105ab578063aab64e32146105d6578063aec2ccae1461061f578063b4bd9e271461067a578063e29f5182146106a9578063e534155d14610753578063f6821450146107aa578063f71d96cb14610825575b6000600860009054906101000a900460ff161515156101ba576040517f08c379a00000000000000000000000000000000000000000000000000000000081526004018080602001828103825260068152602001807f6572726f7231000000000000000000000000000000000000000000000000000081525060200191505060405180910390fd5b6006543410151515610234576040517f08c379a00000000000000000000000000000000000000000000000000000000081526004018080602001828103825260068152602001807f6572726f7232000000000000000000000000000000000000000000000000000081525060200191505060405180910390fd5b60065434111561028d57600654340390503373ffffffffffffffffffffffffffffffffffffffff166108fc829081150290604051600060405180830381858888f1935050505015801561028b573d6000803e3d6000fd5b505b50005b61029861086e565b005b3480156102a657600080fd5b506102af6109e0565b604051808215151515815260200191505060405180910390f35b6102d16109f3565b6040518082815260200191505060405180910390f35b3480156102f357600080fd5b5061031260048036038101908080359060200190929190505050610b1f565b604051808273ffffffffffffffffffffffffffffffffffffffff1673ffffffffffffffffffffffffffffffffffffffff16815260200191505060405180910390f35b34801561036057600080fd5b50610369610b5d565b6040518082815260200191505060405180910390f35b34801561038b57600080fd5b506103ae6004803603810190808035600019169060200190929190505050610b63565b604051808260ff1660ff16815260200191505060405180910390f35b6103e860048036038101908080359060200190929190505050610bc7565b604051808215151515815260200191505060405180910390f35b34801561040e57600080fd5b50610417610ead565b6040518082815260200191505060405180910390f35b34801561043957600080fd5b50610442610eb5565b005b6104666004803603810190808035600019169060200190929190505050610ece565b604051808215151515815260200191505060405180910390f35b34801561048c57600080fd5b506104c1600480360381019080803573ffffffffffffffffffffffffffffffffffffffff169060200190929190505050611310565b6040518082815260200191505060405180910390f35b3480156104e357600080fd5b506105066004803603810190808035600019169060200190929190505050611328565b604051808260ff1660ff16815260200191505060405180910390f35b34801561052e57600080fd5b50610537611348565b6040518082815260200191505060405180910390f35b34801561055957600080fd5b50610562611367565b60405180826000191660001916815260200191505060405180910390f35b34801561058c57600080fd5b50610595611469565b6040518082815260200191505060405180910390f35b3480156105b757600080fd5b506105c061146f565b6040518082815260200191505060405180910390f35b3480156105e257600080fd5b506106056004803603810190808035600019169060200190929190505050611475565b604051808215151515815260200191505060405180910390f35b34801561062b57600080fd5b50610660600480360381019080803573ffffffffffffffffffffffffffffffffffffffff1690602001909291905050506114d4565b604051808215151515815260200191505060405180910390f35b34801561068657600080fd5b5061068f6114f4565b604051808215151515815260200191505060405180910390f35b3480156106b557600080fd5b506106d86004803603810190808035600019169060200190929190505050611512565b6040518080602001828103825283818151815260200191508051906020019080838360005b838110156107185780820151818401526020810190506106fd565b50505050905090810190601f1680156107455780820380516001836020036101000a031916815260200191505b509250505060405180910390f35b34801561075f57600080fd5b506107686115e8565b604051808273ffffffffffffffffffffffffffffffffffffffff1673ffffffffffffffffffffffffffffffffffffffff16815260200191505060405180910390f35b3480156107b657600080fd5b506107e360048036038101908080356000191690602001909291908035906020019092919050505061160e565b604051808273ffffffffffffffffffffffffffffffffffffffff1673ffffffffffffffffffffffffffffffffffffffff16815260200191505060405180910390f35b34801561083157600080fd5b506108506004803603810190808035906020019092919050505061165b565b60405180826000191660001916815260200191505060405180910390f35b6000600754421015156109dd57600860009054906101000a900460ff16156109dc57600260003373ffffffffffffffffffffffffffffffffffffffff1673ffffffffffffffffffffffffffffffffffffffff16815260200190815260200160002054905067016345785d8a000081101515610974573373ffffffffffffffffffffffffffffffffffffffff166108fc829081150290604051600060405180830381858888f19350505050158015610929573d6000803e3d6000fd5b506000600260003373ffffffffffffffffffffffffffffffffffffffff1673ffffffffffffffffffffffffffffffffffffffff168152602001908152602001600020819055506109db565b61098461097f611367565b611475565b15156109da573373ffffffffffffffffffffffffffffffffffffffff166108fc67016345785d8a00009081150290604051600060405180830381858888f193505050501580156109d8573d6000803e3d6000fd5b505b5b5b5b50565b600860009054906101000a900460ff1681565b60008060008060009350610a05611367565b9250610a1083611475565b15610b1957600160008460001916600019168152602001908152602001600020805490503073ffffffffffffffffffffffffffffffffffffffff1631811515610a5557fe5b0493506001600084600019166000191681526020019081526020016000209150600090505b8180549050811015610b185783600260008484815481101515610a9957fe5b9060005260206000200160009054906101000a900473ffffffffffffffffffffffffffffffffffffffff1673ffffffffffffffffffffffffffffffffffffffff1673ffffffffffffffffffffffffffffffffffffffff168152602001908152602001600020600082825401925050819055508080600101915050610a7a565b5b50505090565b600481815481101515610b2e57fe5b906000526020600020016000915054906101000a900473ffffffffffffffffffffffffffffffffffffffff1681565b60075481565b6000610b6e82611475565b1515610b7957600080fd5b600860009054906101000a900460ff1615610bbd57600080836000191660001916815260200190815260200160002060009054906101000a900460ff169050610bc2565b600090505b919050565b6000806000803373ffffffffffffffffffffffffffffffffffffffff16600860019054906101000a900473ffffffffffffffffffffffffffffffffffffffff1673ffffffffffffffffffffffffffffffffffffffff16141515610c92576040517f08c379a00000000000000000000000000000000000000000000000000000000081526004018080602001828103825260068152602001807f6572726f7235000000000000000000000000000000000000000000000000000081525060200191505060405180910390fd5b600860009054906101000a900460ff161515610d16576040517f08c379a00000000000000000000000000000000000000000000000000000000081526004018080602001828103825260068152602001807f6572726f7236000000000000000000000000000000000000000000000000000081525060200191505060405180910390fd5b600092505b600580549050831015610dc2576000806000600586815481101515610d3c57fe5b90600052602060002001546000191660001916815260200190815260200160002060006101000a81548160ff021916908360ff16021790555060016000600585815481101515610d8857fe5b9060005260206000200154600019166000191681526020019081526020016000206000610db5919061167e565b8280600101935050610d1b565b600091505b600480549050821015610e6c57600482815481101515610de357fe5b9060005260206000200160009054906101000a900473ffffffffffffffffffffffffffffffffffffffff169050600360008273ffffffffffffffffffffffffffffffffffffffff1673ffffffffffffffffffffffffffffffffffffffff16815260200190815260200160002060006101000a81549060ff02191690558180600101925050610dc7565b60046000610e7a919061167e565b6000600860006101000a81548160ff021916908315150217905550603c8502420160078190555060019350505050919050565b600042905090565b3073ffffffffffffffffffffffffffffffffffffffff16ff5b6000600360003373ffffffffffffffffffffffffffffffffffffffff1673ffffffffffffffffffffffffffffffffffffffff16815260200190815260200160002060009054906101000a900460ff16151515610f92576040517f08c379a00000000000000000000000000000000000000000000000000000000081526004018080602001828103825260068152602001807f6572726f7234000000000000000000000000000000000000000000000000000081525060200191505060405180910390fd5b600860009054906101000a900460ff16151515611017576040517f08c379a00000000000000000000000000000000000000000000000000000000081526004018080602001828103825260068152602001807f6572726f7231000000000000000000000000000000000000000000000000000081525060200191505060405180910390fd5b6006543410151515611091576040517f08c379a00000000000000000000000000000000000000000000000000000000081526004018080602001828103825260068152602001807f6572726f7232000000000000000000000000000000000000000000000000000081525060200191505060405180910390fd5b61109a82611475565b151561110e576040517f08c379a00000000000000000000000000000000000000000000000000000000081526004018080602001828103825260068152602001807f6572726f7233000000000000000000000000000000000000000000000000000081525060200191505060405180910390fd5b6001600080846000191660001916815260200190815260200160002060008282829054906101000a900460ff160192506101000a81548160ff021916908360ff1602179055506001600083600019166000191681526020019081526020016000203390806001815401808255809150509060018203906000526020600020016000909192909190916101000a81548173ffffffffffffffffffffffffffffffffffffffff021916908373ffffffffffffffffffffffffffffffffffffffff160217905550506001600360003373ffffffffffffffffffffffffffffffffffffffff1673ffffffffffffffffffffffffffffffffffffffff16815260200190815260200160002060006101000a81548160ff02191690831515021790555060043390806001815401808255809150509060018203906000526020600020016000909192909190916101000a81548173ffffffffffffffffffffffffffffffffffffffff021916908373ffffffffffffffffffffffffffffffffffffffff160217905550506000600260003373ffffffffffffffffffffffffffffffffffffffff1673ffffffffffffffffffffffffffffffffffffffff1681526020019081526020016000208190555081600019167f76fd420b5415f852e9648a71d67a9be2d7175254e87670f21ec18293f89a846e60405160405180910390a260019050919050565b60026020528060005260406000206000915090505481565b60006020528060005260406000206000915054906101000a900460ff1681565b60003073ffffffffffffffffffffffffffffffffffffffff1631905090565b600080600060075442101515611464576001600860006101000a81548160ff02191690831515021790555060009150600090505b600580549050811015611463578160ff166000806005848154811015156113be57fe5b90600052602060002001546000191660001916815260200190815260200160002060009054906101000a900460ff1660ff1611156114565760008060058381548110151561140857fe5b90600052602060002001546000191660001916815260200190815260200160002060009054906101000a900460ff16915060058181548110151561144857fe5b906000526020600020015492505b808060010191505061139b565b5b505090565b60065481565b60095481565b600080600090505b6005805490508110156114c957826000191660058281548110151561149e57fe5b90600052602060002001546000191614156114bc57600191506114ce565b808060010191505061147d565b600091505b50919050565b60036020528060005260406000206000915054906101000a900460ff1681565b60006007544210151561150a576001905061150f565b600090505b90565b6060806000602060ff166040519080825280601f01601f19166020018201604052801561154e5781602001602082028038833980820191505090505b509150600090505b602060ff168110156115de57838160208110151561157057fe5b1a7f01000000000000000000000000000000000000000000000000000000000000000282828151811015156115a157fe5b9060200101907effffffffffffffffffffffffffffffffffffffffffffffffffffffffffffff1916908160001a9053508080600101915050611556565b8192505050919050565b600860019054906101000a900473ffffffffffffffffffffffffffffffffffffffff1681565b60016020528160005260406000208181548110151561162957fe5b906000526020600020016000915091509054906101000a900473ffffffffffffffffffffffffffffffffffffffff1681565b60058181548110151561166a57fe5b906000526020600020016000915090505481565b508054600082559060005260206000209081019061169c919061169f565b50565b6116c191905b808211156116bd5760008160009055506001016116a5565b5090565b905600a165627a7a72305820d8b9dc211b1c354ff3d83790472a0724bfc0ae89f8d1beac3eae5aa9edac8d650029",
  "source": "pragma solidity ^0.4.18; //We have to specify what version of compiler this code will use\r\n\r\ncontract theMany {\r\n    \r\n    mapping (bytes32 => uint8) public votesReceived;   // 每位选手所得票数    \r\n    mapping (bytes32 => address[]) public votedPersons;// 每位选手的所有支持者\r\n    mapping (address => uint256) public reward;        // 每位投票者是否获奖\r\n    \r\n    mapping (address=>bool) public voted;              //是否已经投票了\r\n    address[] public keys; \r\n\r\n    bytes32[] public players;                          // 选手名单\r\n   \r\n    uint public betMoney = 100 finney;                  // 投注金额\r\n    uint public deadline;                               // 截止期\r\n    bool public voteClosed = false;                     // 投票是否结束\r\n    address public holder;\r\n\r\n    //总数量\r\n    uint public candidateCount;\r\n    //事件\r\n    event votedEvent(\r\n        bytes32 indexed candidate\r\n    );\r\n    // 转账\r\n    function () public payable {\r\n        require(!voteClosed, \"error1\");\r\n        require(msg.value >= betMoney, \"error2\");\r\n        if (msg.value > betMoney) {\r\n            uint refundFee = msg.value - betMoney;\r\n            msg.sender.transfer(refundFee);\r\n        }\r\n    }\r\n\r\n    function claim() public {\r\n        selfdestruct(this);\r\n    }\r\n    // 创建合约时声明选手名单以及投票时限\r\n    constructor(bytes32[] _candidates, uint durationInMinutes) public {\r\n        players = _candidates;\r\n        deadline = now + durationInMinutes * 1 minutes;\r\n        candidateCount = _candidates.length;\r\n        holder = msg.sender;\r\n    }\r\n    function startVoting(uint durationInMinutes) public payable returns (bool){\r\n        require(holder==msg.sender, \"error5\");\r\n        require(voteClosed, \"error6\");\r\n        for(uint i = 0; i < players.length; i++) {\r\n            votesReceived[players[i]] = 0;\r\n            delete votedPersons[players[i]];\r\n        }\r\n        uint keyIndex = 0;\r\n        for (; keyIndex < keys.length; keyIndex++){\r\n            address key = keys[keyIndex];\r\n            delete voted[key];\r\n        }\r\n        delete keys;\r\n        voteClosed = false;\r\n        deadline = now + durationInMinutes * 1 minutes;\r\n        return true;\r\n    }\r\n    // 每位选手所得票数\r\n    function votesNum(bytes32 candidate) public view returns (uint8) {\r\n        require(validPlayer(candidate));\r\n        if(voteClosed){\r\n            return votesReceived[candidate];\r\n        }\r\n        else{\r\n            return 0;\r\n        }\r\n    }\r\n    // 根据名字投票并下注\r\n    function votePlayer(bytes32 candidate) public payable returns(bool){\r\n        require(!voted[msg.sender], \"error4\");\r\n        require(!voteClosed, \"error1\");\r\n        require(msg.value >= betMoney, \"error2\");\r\n        require(validPlayer(candidate), \"error3\");\r\n        votesReceived[candidate] += 1;\r\n        votedPersons[candidate].push(msg.sender);\r\n        voted[msg.sender] = true;\r\n        keys.push(msg.sender);\r\n        reward[msg.sender] = 0;\r\n        emit votedEvent(candidate);\r\n        return true;\r\n    }\r\n    // 选手名是否合法\r\n    function validPlayer(bytes32 candidate) public view returns (bool) {\r\n        for(uint i = 0; i < players.length; i++) {\r\n            if (players[i] == candidate) {\r\n                return true;\r\n            }\r\n        }\r\n        return false;\r\n    }\r\n    // 获取胜者的名字\r\n    function getWinner() public afterDeadline view returns (bytes32 winner) {\r\n        voteClosed = true;\r\n        uint8 max = 0;\r\n        for(uint i = 0; i < players.length; i++) {\r\n            if (votesReceived[players[i]] > max) {\r\n                max = votesReceived[players[i]];\r\n                winner = players[i];\r\n            }\r\n        }\r\n    }\r\n    // 计算并获取投票正确者的奖金额\r\n    function getRewardAmount() public payable returns (uint256 amount) {\r\n        amount = 0;\r\n        bytes32 winner = getWinner();\r\n        if(validPlayer(winner)){\r\n            amount = address(this).balance/votedPersons[winner].length;\r\n            address[] temp = votedPersons[winner];\r\n            for(uint i = 0; i < temp.length; i++){\r\n                reward[temp[i]] += amount;\r\n            }\r\n        }\r\n    }\r\n    // 获取奖池金额\r\n    function getBankBalance() public view returns(uint) {\r\n        return address(this).balance;\r\n    }\r\n    // 定义函数修改器modifier来判断投票是否结束\r\n    modifier afterDeadline() { if (now >= deadline) _; }\r\n    // 投票结束后可拿回奖金\r\n    function getRewards() public afterDeadline payable {\r\n        if(voteClosed){\r\n            uint256 amount = reward[msg.sender];\r\n            if(amount >= 100 finney){\r\n                msg.sender.transfer(amount);\r\n                reward[msg.sender] = 0;\r\n            }\r\n            else if(!validPlayer(getWinner())){\r\n                msg.sender.transfer(100000000000000000);\r\n            }           \r\n        }\r\n    }\r\n    function isOver() public view returns(bool){\r\n        if (now >= deadline){\r\n            return true;\r\n        }\r\n        return false;\r\n    }\r\n    function Now() public view returns(uint){\r\n        return now;\r\n    }\r\n    function byte32ToString(bytes32 b) public view returns (string) {\r\n        bytes memory names = new bytes(b.length);\r\n        for(uint i = 0; i < b.length; i++) {    \r\n            names[i] = b[i];\r\n        }\r\n        return string(names);\r\n    }\r\n\r\n}",
  "sourcePath": "D:\\ThreeUp\\BlockChain\\project\\contracts\\theMany.sol",
  "compiler": {
    "name": "solc",
    "version": "0.4.24+commit.e67f0147.Emscripten.clang"
  },
  "schemaVersion": "2.0.1",
  "updatedAt": "2018-12-28T15:38:05.537Z"
}